:100000000C942D000C941C050C940B040C941C05F2
:100010000C941C050C941C050C941C050C941C05DC
:100020000C941C050C941C050C941C050C941C05CC
:100030000C941C050C941C050C941C050C941C05BC
:100040000C941C050C941C050C941C050C941C05AC
:100050000C941C0500600061800011241FBECFE5D8
:10006000D8E0DEBFCDBFE4E5F0E040E017C0B591D9
:10007000A59135912591059107FD0CC0959185912C
:10008000EF01F92FE82F05900D92A217B307D9F7CA
:10009000FE0104C01D92A217B307E1F7E935F4078A
:0E00A00031F70E9413050C94BC04F894FFCFB6
:0F00AE00436172005065646573747269616E001E
:1000BE004F925F926F927F928F929F92AF92BF926A
:1000CE00CF92DF92EF92FF920F931F93CF93DF9316
:1000DE00CDB7DEB72B013C01ADB6BEB69B01AC0170
:1000EE0000E010E00AC00F5F1F4FCA01B9012AE0FD
:1000FE0030E040E050E00E94340421153105410506
:10010E00510589F7411451046104710421F480E30F
:10011E000E942F023CC08DB69EB68DB79EB7801B37
:10012E00910B0FB6F8949EBF0FBE8DBF01966C015A
:10013E00780191E0E91AF10814C0C301B2012AE076
:10014E0030E040E050E00E943404F601EE0DFF1D59
:10015E00605D6083422E532E642E752E81E0E81A68
:10016E00F108FF2054F7E12CF12C09C0F601EE0D39
:10017E00FF1D80810E942F029FEFE91AF90AE016F7
:10018E00F106A0F30FB6F8949EBE0FBE8DBE0FB64D
:10019E00F894BEBE0FBEADBEDF91CF911F910F91F1
:1001AE00FF90EF90DF90CF90BF90AF909F908F9089
:0A01BE007F906F905F904F900895BE
:1001C800442319F04130C9F10895813091F028F0A5
:1001D8008230D9F0833029F108952AB381E090E084
:1001E80002C0880F991F6A95E2F7809582238ABB1F
:1001F800089527B381E090E002C0880F991F6A959F
:10020800E2F78095822387BB089524B381E090E0CC
:1002180002C0880F991F6A95E2F78095822384BBF4
:10022800089521B381E090E002C0880F991F6A9574
:10023800E2F78095822381BB0895813089F028F008
:100248008230C9F0833011F108952AB381E090E03B
:1002580002C0880F991F6A95E2F7822B8ABB08951E
:1002680027B381E090E002C0880F991F6A95E2F7F2
:10027800822B87BB089524B381E090E002C0880FE9
:10028800991F6A95E2F7822B84BB089521B381E018
:1002980090E002C0880F991F6A95E2F7822B81BB14
:0202A8000895B7
:1002AA00442319F04130C9F10895813091F028F0C2
:1002BA008230D9F0833029F108952BB381E090E0A0
:1002CA0002C0880F991F6A95E2F7809582238BBB3B
:1002DA00089528B381E090E002C0880F991F6A95BB
:1002EA00E2F78095822388BB089525B381E090E0E8
:1002FA0002C0880F991F6A95E2F78095822385BB11
:10030A00089522B381E090E002C0880F991F6A9590
:10031A00E2F78095822382BB0895813089F028F024
:10032A008230C9F0833011F108952BB381E090E057
:10033A0002C0880F991F6A95E2F7822B8BBB08953A
:10034A0028B381E090E002C0880F991F6A95E2F70E
:10035A00822B88BB089525B381E090E002C0880F04
:10036A00991F6A95E2F7822B85BB089522B381E033
:10037A0090E002C0880F991F6A95E2F7822B82BB30
:02038A000895D4
:10038C00CF93C82F482F441F4427441F64E081E0BB
:10039C000E945501C6FB442740F962E081E00E94AF
:1003AC005501C5FB442740F961E081E00E945501ED
:1003BC00C4FB442740F960E081E00E94550140E015
:1003CC0063E080E00E94550141E062E080E00E9421
:1003DC00550185E08A95F1F7000040E062E080E08D
:1003EC000E9455018FE193E00197F1F700C00000E6
:1003FC00C3FB442740F964E081E00E945501C2FB35
:10040C00442740F962E081E00E945501C1FB44277A
:10041C0040F961E081E00E9455014C2F417060E091
:10042C0081E00E94550141E062E080E00E945501AC
:10043C0095E09A95F1F7000040E062E080E00E94C0
:10044C0055018FE39FE10197F1F700C00000CF91B8
:02045C00089501
:10045E00CF93C82F482F441F4427441F64E081E0E8
:10046E000E945501C6FB442740F962E081E00E94DC
:10047E005501C5FB442740F961E081E00E9455011A
:10048E00C4FB442740F960E081E00E94550141E041
:10049E0063E080E00E94550141E062E080E00E944E
:1004AE00550185E08A95F1F7000040E062E080E0BA
:1004BE000E9455018FE193E00197F1F700C0000013
:1004CE00C3FB442740F964E081E00E945501C2FB62
:1004DE00442740F962E081E00E945501C1FB4427A8
:1004EE0040F961E081E00E9455014C2F417060E0BF
:1004FE0081E00E94550141E062E080E00E945501DA
:10050E0095E09A95F1F7000040E062E080E00E94ED
:10051E0055018FE39FE10197F1F700C00000CF91E5
:02052E0008952E
:10053000CF930E94F104C4E63FC0809160008823FD
:1005400061F0109260000E94CD040E94180562EBD9
:1005500070E080E00E945604C4E687E6C802812D60
:100560001124859585958595C7FD8395880F880FFE
:10057000982F990F990F890FC81314C060E081E07C
:100580000E94A90467E6C602612D11246595659550
:100590006595C7FD6395062E000C770B880B990BAC
:1005A0000E945F002FEF80E792E021508040904052
:1005B000E1F700C00000C1501C160CF4BECF0E9431
:1005C000F7040E9418056EEA70E080E00E9456046D
:0405D000CF9108952A
:1005D400CF93C4E640C087E6C802812D11248595D7
:1005E4008595C7FD8395880F982F990F990F890FCB
:1005F400C81302C00E940E0587E6C802812D11248B
:10060400859585958595C7FD8395880F880F982FC7
:10061400990F990F890FC81314C060E081E00E94FC
:10062400A90467E6C602612D112465956595659553
:10063400C7FD6395062E000C770B880B990B0E945F
:100644005F002FEF80E792E0215080409040E1F777
:1006540000C00000C1501C160CF4BDCF0E9403055D
:04066400CF91089595
:10066800CF930E94DF04C4E633C0809160008111FB
:1006780031C087E6C802812D112485958595859519
:10068800C7FD8395880F880F982F990F990F890FA9
:10069800C81314C060E081E00E94A90467E6C6029E
:1006A800612D1124659565956595C7FD6395062EA1
:1006B800000C770B880B990B0E945F002FEF80E7E7
:1006C80092E0215080409040E1F700C00000C15006
:0C06D8001C165CF20E94E504CF9108950E
:1006E40041E060E081E00E94E40041E061E081E0FB
:1006F4000E94E40041E062E081E00E94E40041E005
:1007040064E081E00E94E40041E063E080E00E9454
:10071400E40041E062E080E00E94E4002FEF89EF12
:1007240090E0215080409040E1F700C0000082E05A
:100734000E94C60188E20E94C6018CE00E94C601A4
:0E07440086E00E94C60181E00E94C601089571
:10075200813089F028F08230C9F0833011F1089598
:100762002BB381E090E002C0880F991F6A95E2F7EF
:1007720082278BBB089528B381E090E002C0880FE6
:10078200991F6A95E2F7822788BB089525B381E015
:1007920090E002C0880F991F6A95E2F7822785BB15
:1007A200089522B381E090E002C0880F991F6A95F4
:0807B200E2F7822782BB0895E3
:1007BA00813079F028F08230A9F08330E1F024C04A
:1007CA0089B390E002C0959587956A95E2F78170A2
:1007DA00089586B390E002C0959587956A95E2F7E9
:1007EA008170089583B390E002C0959587956A95C4
:1007FA00E2F78170089580B390E002C095958795DD
:0C080A006A95E2F78170089580E008957F
:100816001F920F920FB60F9211242F933F934F936F
:100826005F936F937F938F939F93AF93BF93EF9352
:10083600FF930E940905811103C081E08093600047
:10084600FF91EF91BF91AF919F918F917F916F91A2
:100856005F914F913F912F910F900FBE0F901F9078
:020866001895E3
:10086800A1E21A2EAA1BBB1BFD010DC0AA1FBB1FAC
:10087800EE1FFF1FA217B307E407F50720F0A21B1E
:10088800B30BE40BF50B661F771F881F991F1A948B
:1008980069F760957095809590959B01AC01BD01B5
:0408A800CF010895DF
:1008AC00CF92DF92EF926B01E82E06C00E942F02CE
:1008BC008FEFC81AD80AE80AF6018491E7FC808108
:0C08CC008111F4CFEF90DF90CF900895E1
:1008D800CF93DF93C82FD62F40E063E083E00E94D8
:1008E800E4008FB780688FBF85B7D82BD5BF8BB78B
:0A08F800C82BCBBFDF91CF9108950C
:100902000E94EB040E94C7040E94D9040E94FD04C5
:100912000E94720368E080E80E946C046EEA70E054
:0809220080E00E9456040895D4
:10092A000E9498020E940905811103C00E94EA02EE
:10093A0002C00E94D30480916000811104C00E9409
:08094A0034030E94EA02089543
:10095200813011F090E001C090E4823009F494E11A
:10096200833009F494E5643108F4960F80E8890F26
:060972000E94C601089579
:10097800EC010E9421050E942005CE010E9422055B
:06098800CE010E941E05D5
:0C098E0041E065E080E00E94E400089574
:0C099A0041E065E080E00E9455010895F6
:0C09A60040E065E080E00E9455010895EB
:0C09B20041E064E080E00E94E400089551
:0C09BE0041E064E080E00E9455010895D3
:0C09CA0040E064E080E00E9455010895C8
:0C09D60041E067E081E00E94E400089529
:0C09E20041E067E081E00E9455010895AB
:0C09EE0040E067E081E00E9455010895A0
:0C09FA0041E066E080E00E94E400089507
:0C0A060040E066E080E00E945501089589
:0A0A120065E080E00E94DD03089516
:0A0A1C0066E080E00E94A90308953F
:0A0A26000E9481040E949504FDCF98
:080A300081E00E94C601089557
:040A38000C9400001A
:040A3C000E945500BF
:020A4000089517
:020A4200089515
:020A4400089513
:00000001FF
